:100000000EC028C027C0FAC225C024C023C022C009
:1000100021C020C01FC01EC01DC01CC01BC0112499
:100020001FBECFE5D2E0DEBFCDBF10E0A0E6B0E05E
:10003000E8E2F8E002C005900D92A236B107D9F7C8
:1000400020E0A2E6B0E001C01D92A537B207E1F7BB
:10005000F7D2E8C3D5CF88B3806188BB089588B351
:100060008F7E88BB089580B7806880BF80B78F601F
:1000700080BF8AE48DBD89B7806489BF089583B746
:10008000826083BF8AB583608ABD8AB5806C8ABD71
:100090008AB580638ABD8FEF89BD88BD089587B119
:1000A000816087B987B18D7F87B987B1806287B951
:1000B00086B1806886B986B1876086B986B180646A
:1000C00086B93699FECF85B1089587B1836087B927
:1000D00087B1806287B986B1806886B986B187604A
:1000E00086B986B1806486B93699FECF85B1089508
:1000F000CF93DF93C82FD62FE8DF282FD817D0F45F
:10010000482F50E0CA01880F991F840F951F0024C3
:10011000969587950794969587950794982F802DA7
:10012000841B950B6FEF70E056D3462F572F6093CB
:100130006C0002C040E050E080916C008217D0F467
:10014000281B9AE507C0490F511D9150923008F4C1
:1001500092E021502111F7CFCA0166E170E03BD354
:10016000609570E08C2F90E019D36FEF70E033D37F
:10017000609513C06C2F609510C089B5861720F468
:1001800089B58F5F89BD03C089B5815089BD83EC76
:1001900099E00197F1F700C0000089B56813EDCF31
:1001A000DF91CF910895FF920F931F93CF93DF9329
:1001B000F82EC62F042F89DFD82F8091610081305F
:1001C00021F4D0936B001092610080916A008F5FE0
:1001D00080936A0090916900913011F118F092308B
:1001E000E1F156C0DC1710F4873028F082E08093EC
:1001F000690010926A0080E010C018BCE3ECF9E0DE
:100200003197F1F700C000009FEF98BDEFE0F7E2F3
:100210003197F1F700C000008F5F883070F338C06D
:100220008C3320F01092690010926A00C0E012C076
:1002300018BC11DF83EC99E00197F1F700C00000D2
:100240008FEF88BD0CDFEFE0F7E23197F1F700C0E8
:100250000000CF5FC83060F31BC0F1E0FF1205C0A3
:1002600081E08093690010926A00C0E00FC0F3DE65
:1002700083EC99E00197F1F700C00000F0DEEFE0B9
:10028000F7E23197F1F700C00000CF5FC83078F394
:100290001D2F101BC0916B00C01B1C1708F450C011
:1002A00018BCF7E72CE083E0F15020408040E1F7F4
:1002B00000C000008FEF88BD80916900813061F03F
:1002C00018F08230C1F025C080916000882309F1C8
:1002D0008150809360001DC080916000803F18F4C1
:1002E0008B5F80936000809160008F3F91F08F5F03
:1002F000809360000EC080916000863E18F48C5E92
:1003000080936000809160008F3F19F08F5F809331
:100310006000812F6C2F53D2282F682F70E08FEF51
:1003200090E06DD290916000691730F0822F692FB4
:100330002CD28093600058C08FEF8093600054C02F
:100340008ADE97E7ECE0F3E09150E040F040E1F71F
:1003500000C0000084DE8C2F612F31D2682F809185
:1003600060002DD280936000882319F08150809323
:10037000600021E0F21219C06EDE87EB99E1E6E041
:1003800081509040E040E1F700C0000068DE8091BD
:1003900060008F3018F0855080936000809160007D
:1003A000882319F08150809360008091690081302A
:1003B00061F018F0823089F017C0809160008823C6
:1003C00099F08695809360000FC08091600088232B
:1003D00059F081508093600007C0809160008823AD
:1003E00019F08F5F80936000D0936B008091600064
:1003F000DF91CF911F910F91FF9008951F93CF939D
:10040000DF93D82F162F61DEC82F809168008111ED
:1004100002C0C093680080916600909167000196C9
:100420009093670080936600CD1770F4109265007A
:1004300010926400109263001092670010926600A0
:1004400010926800D1E001C0D0E0113009F051C035
:100450001092650010926400109263001092670081
:1004600010926600D0E045C0C093680060916600BD
:1004700070916700809163009091640086179707E0
:1004800098F4709364006093630010926700109278
:10049000660010926500DFDD87EA91E60197F1F7CB
:1004A00000C00000DCDD25C096D16430710580F00D
:1004B000809165008F5F80936500CDDD9FE926E820
:1004C00081E0915020408040E1F700C00000C7DD8E
:1004D00080916500823048F01092650010926400AF
:1004E0001092630010926800D1E0109267001092A1
:1004F000660080916800C81708F4B6CF8D2FDF9191
:10050000CF911F910895CF93DF93C82FD62F8FEFF0
:1005100088BDDBDDD1118093620090916200981755
:1005200080F58C17A8F02DC0E9EFF0E03197F1F7D6
:1005300000C0000028B5223330F4E9EFF0E0319735
:10054000F1F700C0000028B5215028BD915001C02E
:100550009FEF9111E9CF13C0E9EFF0E03197F1F788
:1005600000C0000028B5223330F4E9EFF0E0319705
:10057000F1F700C0000028B52F5F28BD9F5F9F3FA7
:1005800059F78C1708F018BCDF91CF91089563DDFF
:1005900018BC87E893E10197F1F700C000005FDD28
:1005A0008FEF88BD089557DD2FE986E891E021504F
:1005B00080409040E1F700C0000051DD2FE986E85F
:1005C00091E0215080409040E1F700C00000089584
:1005D000CF93C0E00FC03FDD89E698E10197F1F7C6
:1005E00000C000003CDD8DE292E20197F1F700C00F
:1005F0000000CF5FC83078F3CF9108951F920F921B
:100600000FB60F9211248F939F9380917300909156
:100610007400019690937400809373009F918F9162
:100620000F900FBE0F901F901895109274001092AB
:1006300073008091730090917400892BD1F3089519
:1006400083E187BB18BA0FDD789419DD98E288E161
:100650000FB6F894A89581BD0FBE91BD36DDC82FA9
:100660001EDDD82F1CC060916D00809172004BDFA1
:100670002CDDC82F14DDD82F10926D001092700061
:10068000A895D3DF09C089B58F5F89BD8DEE92E053
:100690000197F1F700C0000089B58F3FA1F7DC1783
:1006A00010F76FC081E080936D0071DFA895BDDF0A
:1006B00010926E006091720080E01ADD06DDC82F96
:1006C000EEDCD82F809172008C1710F4C09372006A
:1006D000DC1708F04EC08C2F6D2F71D0833010F3D3
:1006E00048C0F3DCC82FDBDCD82F8B3008F0DA50A1
:1006F0008FEF88BDA89599DF80917000811122C08D
:1007000080916D00823049F04091710060917200DB
:1007100080916F0048DD80936E0082E080936D00D1
:1007200080916E00811102C03EDF03C060917200B3
:10073000DFDC60916D008091710060DE809370005D
:1007400010926F0080917000813099F480916E005A
:10075000882319F0BADC8093710011E010936D00CA
:1007600010926E006091720080E0C2DC10936F0006
:100770002FDFDC1730F48C2F6D2F21D0833008F061
:10078000B0CFDC1708F4A4CF69CF002480FD060E9B
:10079000660F11F08695D1F7802D08950024552716
:1007A00004C0080E591F880F991F009729F07695ED
:1007B0006795B8F37105B9F7802D952F0895991BAA
:1007C00079E004C0991F961708F0961B881F7A9548
:1007D000C9F780950895AA1BBB1B51E107C0AA1F4A
:1007E000BB1FA617B70710F0A61BB70B881F991FD2
:1007F0005A95A9F780959095BC01CD01089597FB76
:10080000072E16F4009406D077FD08D0E4DF07FC2D
:1008100005D03EF4909581959F4F08957095619510
:080820007F4F0895F894FFCF0B
:02082800640169
:00000001FF
